{
  "contractName": "ZombieHelper",
  "abi": [
    {
      "anonymous": false,
      "inputs": [
        {
          "indexed": false,
          "internalType": "uint256",
          "name": "zombieId",
          "type": "uint256"
        },
        {
          "indexed": false,
          "internalType": "string",
          "name": "name",
          "type": "string"
        },
        {
          "indexed": false,
          "internalType": "uint256",
          "name": "dna",
          "type": "uint256"
        }
      ],
      "name": "NewZombie",
      "type": "event"
    },
    {
      "anonymous": false,
      "inputs": [
        {
          "indexed": true,
          "internalType": "address",
          "name": "previousOwner",
          "type": "address"
        },
        {
          "indexed": true,
          "internalType": "address",
          "name": "newOwner",
          "type": "address"
        }
      ],
      "name": "OwnershipTransferred",
      "type": "event"
    },
    {
      "constant": true,
      "inputs": [
        {
          "internalType": "string",
          "name": "_str",
          "type": "string"
        }
      ],
      "name": "_generateRandomDna",
      "outputs": [
        {
          "internalType": "uint256",
          "name": "",
          "type": "uint256"
        }
      ],
      "payable": false,
      "stateMutability": "view",
      "type": "function"
    },
    {
      "constant": false,
      "inputs": [
        {
          "internalType": "string",
          "name": "_name",
          "type": "string"
        }
      ],
      "name": "createRandomZombie",
      "outputs": [],
      "payable": false,
      "stateMutability": "nonpayable",
      "type": "function"
    },
    {
      "constant": false,
      "inputs": [
        {
          "internalType": "uint256",
          "name": "_zombieId",
          "type": "uint256"
        },
        {
          "internalType": "uint256",
          "name": "_kittyId",
          "type": "uint256"
        }
      ],
      "name": "feedOnKitty",
      "outputs": [],
      "payable": false,
      "stateMutability": "nonpayable",
      "type": "function"
    },
    {
      "constant": false,
      "inputs": [
        {
          "internalType": "uint256",
          "name": "_zombieId",
          "type": "uint256"
        },
        {
          "internalType": "uint256",
          "name": "_warriorId",
          "type": "uint256"
        }
      ],
      "name": "feedOnWarrior",
      "outputs": [],
      "payable": false,
      "stateMutability": "nonpayable",
      "type": "function"
    },
    {
      "constant": true,
      "inputs": [],
      "name": "isOwner",
      "outputs": [
        {
          "internalType": "bool",
          "name": "",
          "type": "bool"
        }
      ],
      "payable": false,
      "stateMutability": "view",
      "type": "function"
    },
    {
      "constant": true,
      "inputs": [],
      "name": "owner",
      "outputs": [
        {
          "internalType": "address",
          "name": "",
          "type": "address"
        }
      ],
      "payable": false,
      "stateMutability": "view",
      "type": "function"
    },
    {
      "constant": false,
      "inputs": [],
      "name": "renounceOwnership",
      "outputs": [],
      "payable": false,
      "stateMutability": "nonpayable",
      "type": "function"
    },
    {
      "constant": false,
      "inputs": [
        {
          "internalType": "address",
          "name": "_address",
          "type": "address"
        }
      ],
      "name": "setKittyContractAddress",
      "outputs": [],
      "payable": false,
      "stateMutability": "nonpayable",
      "type": "function"
    },
    {
      "constant": false,
      "inputs": [
        {
          "internalType": "address",
          "name": "newOwner",
          "type": "address"
        }
      ],
      "name": "transferOwnership",
      "outputs": [],
      "payable": false,
      "stateMutability": "nonpayable",
      "type": "function"
    },
    {
      "constant": true,
      "inputs": [
        {
          "internalType": "uint256",
          "name": "",
          "type": "uint256"
        }
      ],
      "name": "zombieToOwner",
      "outputs": [
        {
          "internalType": "address",
          "name": "",
          "type": "address"
        }
      ],
      "payable": false,
      "stateMutability": "view",
      "type": "function"
    },
    {
      "constant": true,
      "inputs": [
        {
          "internalType": "uint256",
          "name": "",
          "type": "uint256"
        }
      ],
      "name": "zombies",
      "outputs": [
        {
          "internalType": "string",
          "name": "name",
          "type": "string"
        },
        {
          "internalType": "uint256",
          "name": "dna",
          "type": "uint256"
        },
        {
          "internalType": "uint32",
          "name": "level",
          "type": "uint32"
        },
        {
          "internalType": "uint32",
          "name": "readyTime",
          "type": "uint32"
        },
        {
          "internalType": "uint16",
          "name": "winCount",
          "type": "uint16"
        },
        {
          "internalType": "uint16",
          "name": "lossCount",
          "type": "uint16"
        }
      ],
      "payable": false,
      "stateMutability": "view",
      "type": "function"
    },
    {
      "constant": false,
      "inputs": [],
      "name": "withdraw",
      "outputs": [],
      "payable": false,
      "stateMutability": "nonpayable",
      "type": "function"
    },
    {
      "constant": false,
      "inputs": [
        {
          "internalType": "uint256",
          "name": "_fee",
          "type": "uint256"
        }
      ],
      "name": "setLevelUpFee",
      "outputs": [],
      "payable": false,
      "stateMutability": "nonpayable",
      "type": "function"
    },
    {
      "constant": false,
      "inputs": [
        {
          "internalType": "uint256",
          "name": "_zombieId",
          "type": "uint256"
        }
      ],
      "name": "levelUp",
      "outputs": [],
      "payable": true,
      "stateMutability": "payable",
      "type": "function"
    },
    {
      "constant": false,
      "inputs": [
        {
          "internalType": "uint256",
          "name": "_zombieId",
          "type": "uint256"
        },
        {
          "internalType": "string",
          "name": "_newName",
          "type": "string"
        }
      ],
      "name": "changeName",
      "outputs": [],
      "payable": false,
      "stateMutability": "nonpayable",
      "type": "function"
    },
    {
      "constant": false,
      "inputs": [
        {
          "internalType": "uint256",
          "name": "_zombieId",
          "type": "uint256"
        },
        {
          "internalType": "uint256",
          "name": "_newDna",
          "type": "uint256"
        }
      ],
      "name": "changeDna",
      "outputs": [],
      "payable": false,
      "stateMutability": "nonpayable",
      "type": "function"
    },
    {
      "constant": true,
      "inputs": [
        {
          "internalType": "address",
          "name": "_owner",
          "type": "address"
        }
      ],
      "name": "getZombiesByOwner",
      "outputs": [
        {
          "internalType": "uint256[]",
          "name": "",
          "type": "uint256[]"
        }
      ],
      "payable": false,
      "stateMutability": "view",
      "type": "function"
    }
  ],
  "bytecode": "0x60806040526010600155600154600a0a600255620151806003557316baf0de678e52367adc69fd067e5edd1d33e3bf600760006101000a81548173ffffffffffffffffffffffffffffffffffffffff021916908373ffffffffffffffffffffffffffffffffffffffff16021790555073a8f260147355e3d06838c8b9d313f84700c7fb53600860006101000a81548173ffffffffffffffffffffffffffffffffffffffff021916908373ffffffffffffffffffffffffffffffffffffffff16021790555066038d7ea4c68000600955336000806101000a81548173ffffffffffffffffffffffffffffffffffffffff021916908373ffffffffffffffffffffffffffffffffffffffff1602179055506000809054906101000a900473ffffffffffffffffffffffffffffffffffffffff1673ffffffffffffffffffffffffffffffffffffffff16600073ffffffffffffffffffffffffffffffffffffffff167f8be0079c531659141344cd1fd0a4f28419497f9722a3daafe3b4186f6b6457e060405160405180910390a3611da5806101996000396000f3fe6080604052600436106100fe5760003560e01c8063715018a611610095578063c39cbef111610064578063c39cbef1146105a8578063ccf670f814610638578063df57a6ec14610673578063f26ac03f1461074f578063f2fde38b14610794576100fe565b8063715018a6146104435780637bff0a011461045a5780638da5cb5b146105225780638f32d59b14610579576100fe565b80634412e104116100d15780634412e1041461028c578063528b7b8f146103325780635f4623f1146103ad5780635faf2880146103fe576100fe565b80630ce90ec21461010357806317a7f4cc146101315780632052465e146101765780633ccfd60b14610275575b600080fd5b61012f6004803603602081101561011957600080fd5b81019080803590602001909291905050506107e5565b005b34801561013d57600080fd5b506101746004803603604081101561015457600080fd5b81019080803590602001909291908035906020019092919050505061087a565b005b34801561018257600080fd5b506101af6004803603602081101561019957600080fd5b8101908080359060200190929190505050610a72565b60405180806020018781526020018663ffffffff1663ffffffff1681526020018563ffffffff1663ffffffff1681526020018461ffff1661ffff1681526020018361ffff1661ffff168152602001828103825288818151815260200191508051906020019080838360005b8381101561023557808201518184015260208101905061021a565b50505050905090810190601f1680156102625780820380516001836020036101000a031916815260200191505b5097505050505050505060405180910390f35b34801561028157600080fd5b5061028a610b8f565b005b34801561029857600080fd5b506102db600480360360208110156102af57600080fd5b81019080803573ffffffffffffffffffffffffffffffffffffffff169060200190929190505050610bf6565b6040518080602001828103825283818151815260200191508051906020019060200280838360005b8381101561031e578082015181840152602081019050610303565b505050509050019250505060405180910390f35b34801561033e57600080fd5b5061036b6004803603602081101561035557600080fd5b8101908080359060200190929190505050610d31565b604051808273ffffffffffffffffffffffffffffffffffffffff1673ffffffffffffffffffffffffffffffffffffffff16815260200191505060405180910390f35b3480156103b957600080fd5b506103fc600480360360208110156103d057600080fd5b81019080803573ffffffffffffffffffffffffffffffffffffffff169060200190929190505050610d64565b005b34801561040a57600080fd5b506104416004803603604081101561042157600080fd5b810190808035906020019092919080359060200190929190505050610db9565b005b34801561044f57600080fd5b50610458610e93565b005b34801561046657600080fd5b506105206004803603602081101561047d57600080fd5b810190808035906020019064010000000081111561049a57600080fd5b8201836020820111156104ac57600080fd5b803590602001918460018302840111640100000000831117156104ce57600080fd5b91908080601f016020809104026020016040519081016040528093929190818152602001838380828437600081840152601f19601f820116905080830192505050505050509192919290505050610f63565b005b34801561052e57600080fd5b50610537610fd9565b604051808273ffffffffffffffffffffffffffffffffffffffff1673ffffffffffffffffffffffffffffffffffffffff16815260200191505060405180910390f35b34801561058557600080fd5b5061058e611002565b604051808215151515815260200191505060405180910390f35b3480156105b457600080fd5b50610636600480360360408110156105cb57600080fd5b8101908080359060200190929190803590602001906401000000008111156105f257600080fd5b82018360208201111561060457600080fd5b8035906020019184600183028401116401000000008311171561062657600080fd5b9091929391929390505050611059565b005b34801561064457600080fd5b506106716004803603602081101561065b57600080fd5b810190808035906020019092919050505061113f565b005b34801561067f57600080fd5b506107396004803603602081101561069657600080fd5b81019080803590602001906401000000008111156106b357600080fd5b8201836020820111156106c557600080fd5b803590602001918460018302840111640100000000831117156106e757600080fd5b91908080601f016020809104026020016040519081016040528093929190818152602001838380828437600081840152601f19601f82011690508083019250505050505050919291929050505061115a565b6040518082815260200191505060405180910390f35b34801561075b57600080fd5b506107926004803603604081101561077257600080fd5b8101908080359060200190929190803590602001909291905050506111e8565b005b3480156107a057600080fd5b506107e3600480360360208110156107b757600080fd5b81019080803573ffffffffffffffffffffffffffffffffffffffff169060200190929190505050611514565b005b60095434146107f357600080fd5b61083b60016004838154811061080557fe5b906000526020600020906003020160020160009054906101000a900463ffffffff1663ffffffff1661153190919063ffffffff16565b6004828154811061084857fe5b906000526020600020906003020160020160006101000a81548163ffffffff021916908363ffffffff16021790555050565b816005600082815260200190815260200160002060009054906101000a900473ffffffffffffffffffffffffffffffffffffffff1673ffffffffffffffffffffffffffffffffffffffff163373ffffffffffffffffffffffffffffffffffffffff16146108e657600080fd5b6000600760009054906101000a900473ffffffffffffffffffffffffffffffffffffffff1673ffffffffffffffffffffffffffffffffffffffff1663e98b7f4d846040518263ffffffff1660e01b8152600401808281526020019150506101406040518083038186803b15801561095c57600080fd5b505afa158015610970573d6000803e3d6000fd5b505050506040513d61014081101561098757600080fd5b810190808051906020019092919080519060200190929190805190602001909291908051906020019092919080519060200190929190805190602001909291908051906020019092919080519060200190929190805190602001909291908051906020019092919050505090919293949596979850909192939495969750909192939495965090919293949550909192939450909192935090919250909150905080915050610a6c84826040518060400160405280600581526020017f6b69747479000000000000000000000000000000000000000000000000000000815250611559565b50505050565b60048181548110610a7f57fe5b9060005260206000209060030201600091509050806000018054600181600116156101000203166002900480601f016020809104026020016040519081016040528092919081815260200182805460018160011615610100020316600290048015610b2b5780601f10610b0057610100808354040283529160200191610b2b565b820191906000526020600020905b815481529060010190602001808311610b0e57829003601f168201915b5050505050908060010154908060020160009054906101000a900463ffffffff16908060020160049054906101000a900463ffffffff16908060020160089054906101000a900461ffff169080600201600a9054906101000a900461ffff16905086565b610b97611002565b610ba057600080fd5b6000610baa610fd9565b90508073ffffffffffffffffffffffffffffffffffffffff166108fc479081150290604051600060405180830381858888f19350505050158015610bf2573d6000803e3d6000fd5b5050565b606080600660008473ffffffffffffffffffffffffffffffffffffffff1673ffffffffffffffffffffffffffffffffffffffff16815260200190815260200160002054604051908082528060200260200182016040528015610c675781602001602082028038833980820191505090505b509050600080905060008090505b600480549050811015610d26578473ffffffffffffffffffffffffffffffffffffffff166005600083815260200190815260200160002060009054906101000a900473ffffffffffffffffffffffffffffffffffffffff1673ffffffffffffffffffffffffffffffffffffffff161415610d195780838381518110610cf657fe5b602002602001018181525050610d1660018361180d90919063ffffffff16565b91505b8080600101915050610c75565b508192505050919050565b60056020528060005260406000206000915054906101000a900473ffffffffffffffffffffffffffffffffffffffff1681565b610d6c611002565b610d7557600080fd5b80600760006101000a81548173ffffffffffffffffffffffffffffffffffffffff021916908373ffffffffffffffffffffffffffffffffffffffff16021790555050565b6014828160048281548110610dca57fe5b906000526020600020906003020160020160009054906101000a900463ffffffff1663ffffffff161015610dfd57600080fd5b836005600082815260200190815260200160002060009054906101000a900473ffffffffffffffffffffffffffffffffffffffff1673ffffffffffffffffffffffffffffffffffffffff163373ffffffffffffffffffffffffffffffffffffffff1614610e6957600080fd5b8360048681548110610e7757fe5b9060005260206000209060030201600101819055505050505050565b610e9b611002565b610ea457600080fd5b600073ffffffffffffffffffffffffffffffffffffffff166000809054906101000a900473ffffffffffffffffffffffffffffffffffffffff1673ffffffffffffffffffffffffffffffffffffffff167f8be0079c531659141344cd1fd0a4f28419497f9722a3daafe3b4186f6b6457e060405160405180910390a360008060006101000a81548173ffffffffffffffffffffffffffffffffffffffff021916908373ffffffffffffffffffffffffffffffffffffffff160217905550565b6000600660003373ffffffffffffffffffffffffffffffffffffffff1673ffffffffffffffffffffffffffffffffffffffff1681526020019081526020016000205414610faf57600080fd5b6000610fba8261115a565b905060648181610fc657fe5b0681039050610fd58282611829565b5050565b60008060009054906101000a900473ffffffffffffffffffffffffffffffffffffffff16905090565b60008060009054906101000a900473ffffffffffffffffffffffffffffffffffffffff1673ffffffffffffffffffffffffffffffffffffffff163373ffffffffffffffffffffffffffffffffffffffff1614905090565b600283816004828154811061106a57fe5b906000526020600020906003020160020160009054906101000a900463ffffffff1663ffffffff16101561109d57600080fd5b846005600082815260200190815260200160002060009054906101000a900473ffffffffffffffffffffffffffffffffffffffff1673ffffffffffffffffffffffffffffffffffffffff163373ffffffffffffffffffffffffffffffffffffffff161461110957600080fd5b84846004888154811061111857fe5b90600052602060002090600302016000019190611136929190611c4b565b50505050505050565b611147611002565b61115057600080fd5b8060098190555050565b600080826040516020018082805190602001908083835b602083106111945780518252602082019150602081019050602083039250611171565b6001836020036101000a0380198251168184511680821785525050505050509050019150506040516020818303038152906040528051906020012060001c905060025481816111df57fe5b06915050919050565b816005600082815260200190815260200160002060009054906101000a900473ffffffffffffffffffffffffffffffffffffffff1673ffffffffffffffffffffffffffffffffffffffff163373ffffffffffffffffffffffffffffffffffffffff161461125457600080fd5b6060600080600860009054906101000a900473ffffffffffffffffffffffffffffffffffffffff1673ffffffffffffffffffffffffffffffffffffffff166329372ad0866040518263ffffffff1660e01b81526004018082815260200191505060006040518083038186803b1580156112cc57600080fd5b505afa1580156112e0573d6000803e3d6000fd5b505050506040513d6000823e3d601f19601f8201168201806040525060c081101561130a57600080fd5b810190808051604051939291908464010000000082111561132a57600080fd5b8382019150602082018581111561134057600080fd5b825186600182028301116401000000008211171561135d57600080fd5b8083526020830192505050908051906020019080838360005b83811015611391578082015181840152602081019050611376565b50505050905090810190601f1680156113be5780820380516001836020036101000a031916815260200191505b50604052602001805160405193929190846401000000008211156113e157600080fd5b838201915060208201858111156113f757600080fd5b825186600182028301116401000000008211171561141457600080fd5b8083526020830192505050908051906020019080838360005b8381101561144857808201518184015260208101905061142d565b50505050905090810190601f1680156114755780820380516001836020036101000a031916815260200191505b5060405260200180519060200190929190805190602001909291908051906020019092919080519060200190929190505050909192939450909150905080935081945082955050505060006114c98461115a565b905061150b87826040518060400160405280600781526020017f77617272696f7200000000000000000000000000000000000000000000000000815250611559565b50505050505050565b61151c611002565b61152557600080fd5b61152e81611b02565b50565b60008082840190508363ffffffff168163ffffffff16101561154f57fe5b8091505092915050565b826005600082815260200190815260200160002060009054906101000a900473ffffffffffffffffffffffffffffffffffffffff1673ffffffffffffffffffffffffffffffffffffffff163373ffffffffffffffffffffffffffffffffffffffff16146115c557600080fd5b6000600485815481106115d457fe5b906000526020600020906003020190506115ed81611bfa565b6115f657600080fd5b600254848161160157fe5b06935060006002858360010154018161161657fe5b04905060405160200180807f6b69747479000000000000000000000000000000000000000000000000000000815250600501905060405160208183030381529060405280519060200120846040516020018082805190602001908083835b602083106116975780518252602082019150602081019050602083039250611674565b6001836020036101000a0380198251168184511680821785525050505050509050019150506040516020818303038152906040528051906020012014156116eb576063606482816116e457fe5b0682030190505b60405160200180807f77617272696f7200000000000000000000000000000000000000000000000000815250600701905060405160208183030381529060405280519060200120846040516020018082805190602001908083835b602083106117695780518252602082019150602081019050602083039250611746565b6001836020036101000a0380198251168184511680821785525050505050509050019150506040516020818303038152906040528051906020012014156117bd576058606482816117b657fe5b0682030190505b6117fc6040518060400160405280600681526020017f4e6f4e616d65000000000000000000000000000000000000000000000000000081525082611829565b61180582611c21565b505050505050565b60008082840190508381101561181f57fe5b8091505092915050565b60046040518060c00160405280848152602001838152602001600163ffffffff168152602001600354420163ffffffff168152602001600061ffff168152602001600061ffff168152509080600181540180825580915050906001820390600052602060002090600302016000909192909190915060008201518160000190805190602001906118ba929190611ccb565b506020820151816001015560408201518160020160006101000a81548163ffffffff021916908363ffffffff16021790555060608201518160020160046101000a81548163ffffffff021916908363ffffffff16021790555060808201518160020160086101000a81548161ffff021916908361ffff16021790555060a082015181600201600a6101000a81548161ffff021916908361ffff16021790555050505060006001600480549050039050336005600083815260200190815260200160002060006101000a81548173ffffffffffffffffffffffffffffffffffffffff021916908373ffffffffffffffffffffffffffffffffffffffff160217905550611a0e6001600660003373ffffffffffffffffffffffffffffffffffffffff1673ffffffffffffffffffffffffffffffffffffffff1681526020019081526020016000205461180d90919063ffffffff16565b600660003373ffffffffffffffffffffffffffffffffffffffff1673ffffffffffffffffffffffffffffffffffffffff168152602001908152602001600020819055507f88f026aacbbecc90c18411df4b1185fd8d9be2470f1962f192bf84a27d0704b78184846040518084815260200180602001838152602001828103825284818151815260200191508051906020019080838360005b83811015611ac1578082015181840152602081019050611aa6565b50505050905090810190601f168015611aee5780820380516001836020036101000a031916815260200191505b5094505050505060405180910390a1505050565b600073ffffffffffffffffffffffffffffffffffffffff168173ffffffffffffffffffffffffffffffffffffffff161415611b3c57600080fd5b8073ffffffffffffffffffffffffffffffffffffffff166000809054906101000a900473ffffffffffffffffffffffffffffffffffffffff1673ffffffffffffffffffffffffffffffffffffffff167f8be0079c531659141344cd1fd0a4f28419497f9722a3daafe3b4186f6b6457e060405160405180910390a3806000806101000a81548173ffffffffffffffffffffffffffffffffffffffff021916908373ffffffffffffffffffffffffffffffffffffffff16021790555050565b6000428260020160049054906101000a900463ffffffff1663ffffffff1611159050919050565b60035442018160020160046101000a81548163ffffffff021916908363ffffffff16021790555050565b828054600181600116156101000203166002900490600052602060002090601f016020900481019282601f10611c8c57803560ff1916838001178555611cba565b82800160010185558215611cba579182015b82811115611cb9578235825591602001919060010190611c9e565b5b509050611cc79190611d4b565b5090565b828054600181600116156101000203166002900490600052602060002090601f016020900481019282601f10611d0c57805160ff1916838001178555611d3a565b82800160010185558215611d3a579182015b82811115611d39578251825591602001919060010190611d1e565b5b509050611d479190611d4b565b5090565b611d6d91905b80821115611d69576000816000905550600101611d51565b5090565b9056fea265627a7a72315820a6b76db9d01948c1c09204f03bcf59e0ec2c461a4409ffbfb82bf024ea073cb164736f6c63430005110032",
  "source": "// SPDX-License-Identifier: MIT\npragma solidity >=0.5.0 <0.6.0;\n\nimport \"./ZombieFeeding.sol\";\n\ncontract ZombieHelper is ZombieFeeding {\n  using SafeMath for uint256;\n  using SafeMath32 for uint32;\n  using SafeMath16 for uint16;\n\n  uint levelUpFee = 0.001 ether;\n\n  modifier aboveLevel(uint _level, uint _zombieId) {\n    require(zombies[_zombieId].level >= _level);\n    _;\n  }\n\n  function withdraw() external onlyOwner {\n    address payable _owner = address(uint160(owner()));\n    _owner.transfer(address(this).balance);\n  }\n\n  function setLevelUpFee(uint _fee) external onlyOwner {\n    levelUpFee = _fee;\n  }\n\n  function levelUp(uint _zombieId) external payable {\n    require(msg.value == levelUpFee);\n    zombies[_zombieId].level = zombies[_zombieId].level.add(1);\n  }\n\n  function changeName(uint _zombieId, string calldata _newName) external aboveLevel(2, _zombieId) onlyOwnerOf(_zombieId) {\n    zombies[_zombieId].name = _newName;\n  }\n\n  function changeDna(uint _zombieId, uint _newDna) external aboveLevel(20, _zombieId) onlyOwnerOf(_zombieId) {\n    zombies[_zombieId].dna = _newDna;\n  }\n\n  function getZombiesByOwner(address _owner) external view returns(uint[] memory) {\n    uint[] memory result = new uint[](ownerZombieCount[_owner]);\n    uint counter = 0;\n    for (uint i = 0; i < zombies.length; i++) {\n      if (zombieToOwner[i] == _owner) {\n        result[counter] = i;\n        counter = counter.add(1);\n      }\n    }\n    return result;\n  }\n}\n",
  "sourcePath": "/home/bruno/src/cryptozombies/src/truffle/contracts/ZombieHelper.sol",
  "compiler": {
    "name": "solc",
    "version": "0.5.17+commit.d19bba13.Emscripten.clang"
  },
  "schemaVersion": "3.4.7",
  "updatedAt": "2022-06-21T16:29:10.378Z",
  "devdoc": {
    "methods": {
      "isOwner()": {
        "return": "true if `msg.sender` is the owner of the contract."
      },
      "owner()": {
        "return": "the address of the owner."
      },
      "renounceOwnership()": {
        "details": "Allows the current owner to relinquish control of the contract."
      },
      "transferOwnership(address)": {
        "details": "Allows the current owner to transfer control of the contract to a newOwner.",
        "params": {
          "newOwner": "The address to transfer ownership to."
        }
      }
    }
  },
  "userdoc": {
    "methods": {
      "renounceOwnership()": {
        "notice": "Renouncing to ownership will leave the contract without an owner. It will not be possible to call the functions with the `onlyOwner` modifier anymore."
      }
    }
  }
}