{
  "contractName": "ZombieAttack",
  "abi": [
    {
      "anonymous": false,
      "inputs": [
        {
          "indexed": false,
          "internalType": "uint256",
          "name": "zombieId",
          "type": "uint256"
        },
        {
          "indexed": false,
          "internalType": "string",
          "name": "name",
          "type": "string"
        },
        {
          "indexed": false,
          "internalType": "uint256",
          "name": "dna",
          "type": "uint256"
        }
      ],
      "name": "NewZombie",
      "type": "event"
    },
    {
      "anonymous": false,
      "inputs": [
        {
          "indexed": true,
          "internalType": "address",
          "name": "previousOwner",
          "type": "address"
        },
        {
          "indexed": true,
          "internalType": "address",
          "name": "newOwner",
          "type": "address"
        }
      ],
      "name": "OwnershipTransferred",
      "type": "event"
    },
    {
      "constant": true,
      "inputs": [
        {
          "internalType": "string",
          "name": "_str",
          "type": "string"
        }
      ],
      "name": "_generateRandomDna",
      "outputs": [
        {
          "internalType": "uint256",
          "name": "",
          "type": "uint256"
        }
      ],
      "payable": false,
      "stateMutability": "view",
      "type": "function"
    },
    {
      "constant": false,
      "inputs": [
        {
          "internalType": "uint256",
          "name": "_zombieId",
          "type": "uint256"
        },
        {
          "internalType": "uint256",
          "name": "_newDna",
          "type": "uint256"
        }
      ],
      "name": "changeDna",
      "outputs": [],
      "payable": false,
      "stateMutability": "nonpayable",
      "type": "function"
    },
    {
      "constant": false,
      "inputs": [
        {
          "internalType": "uint256",
          "name": "_zombieId",
          "type": "uint256"
        },
        {
          "internalType": "string",
          "name": "_newName",
          "type": "string"
        }
      ],
      "name": "changeName",
      "outputs": [],
      "payable": false,
      "stateMutability": "nonpayable",
      "type": "function"
    },
    {
      "constant": false,
      "inputs": [
        {
          "internalType": "string",
          "name": "_name",
          "type": "string"
        }
      ],
      "name": "createRandomZombie",
      "outputs": [],
      "payable": false,
      "stateMutability": "nonpayable",
      "type": "function"
    },
    {
      "constant": false,
      "inputs": [
        {
          "internalType": "uint256",
          "name": "_zombieId",
          "type": "uint256"
        },
        {
          "internalType": "uint256",
          "name": "_kittyId",
          "type": "uint256"
        }
      ],
      "name": "feedOnKitty",
      "outputs": [],
      "payable": false,
      "stateMutability": "nonpayable",
      "type": "function"
    },
    {
      "constant": false,
      "inputs": [
        {
          "internalType": "uint256",
          "name": "_zombieId",
          "type": "uint256"
        },
        {
          "internalType": "uint256",
          "name": "_warriorId",
          "type": "uint256"
        }
      ],
      "name": "feedOnWarrior",
      "outputs": [],
      "payable": false,
      "stateMutability": "nonpayable",
      "type": "function"
    },
    {
      "constant": true,
      "inputs": [
        {
          "internalType": "address",
          "name": "_owner",
          "type": "address"
        }
      ],
      "name": "getZombiesByOwner",
      "outputs": [
        {
          "internalType": "uint256[]",
          "name": "",
          "type": "uint256[]"
        }
      ],
      "payable": false,
      "stateMutability": "view",
      "type": "function"
    },
    {
      "constant": true,
      "inputs": [],
      "name": "isOwner",
      "outputs": [
        {
          "internalType": "bool",
          "name": "",
          "type": "bool"
        }
      ],
      "payable": false,
      "stateMutability": "view",
      "type": "function"
    },
    {
      "constant": false,
      "inputs": [
        {
          "internalType": "uint256",
          "name": "_zombieId",
          "type": "uint256"
        }
      ],
      "name": "levelUp",
      "outputs": [],
      "payable": true,
      "stateMutability": "payable",
      "type": "function"
    },
    {
      "constant": true,
      "inputs": [],
      "name": "owner",
      "outputs": [
        {
          "internalType": "address",
          "name": "",
          "type": "address"
        }
      ],
      "payable": false,
      "stateMutability": "view",
      "type": "function"
    },
    {
      "constant": false,
      "inputs": [],
      "name": "renounceOwnership",
      "outputs": [],
      "payable": false,
      "stateMutability": "nonpayable",
      "type": "function"
    },
    {
      "constant": false,
      "inputs": [
        {
          "internalType": "address",
          "name": "_address",
          "type": "address"
        }
      ],
      "name": "setKittyContractAddress",
      "outputs": [],
      "payable": false,
      "stateMutability": "nonpayable",
      "type": "function"
    },
    {
      "constant": false,
      "inputs": [
        {
          "internalType": "uint256",
          "name": "_fee",
          "type": "uint256"
        }
      ],
      "name": "setLevelUpFee",
      "outputs": [],
      "payable": false,
      "stateMutability": "nonpayable",
      "type": "function"
    },
    {
      "constant": false,
      "inputs": [
        {
          "internalType": "address",
          "name": "newOwner",
          "type": "address"
        }
      ],
      "name": "transferOwnership",
      "outputs": [],
      "payable": false,
      "stateMutability": "nonpayable",
      "type": "function"
    },
    {
      "constant": false,
      "inputs": [],
      "name": "withdraw",
      "outputs": [],
      "payable": false,
      "stateMutability": "nonpayable",
      "type": "function"
    },
    {
      "constant": true,
      "inputs": [
        {
          "internalType": "uint256",
          "name": "",
          "type": "uint256"
        }
      ],
      "name": "zombieToOwner",
      "outputs": [
        {
          "internalType": "address",
          "name": "",
          "type": "address"
        }
      ],
      "payable": false,
      "stateMutability": "view",
      "type": "function"
    },
    {
      "constant": true,
      "inputs": [
        {
          "internalType": "uint256",
          "name": "",
          "type": "uint256"
        }
      ],
      "name": "zombies",
      "outputs": [
        {
          "internalType": "string",
          "name": "name",
          "type": "string"
        },
        {
          "internalType": "uint256",
          "name": "dna",
          "type": "uint256"
        },
        {
          "internalType": "uint32",
          "name": "level",
          "type": "uint32"
        },
        {
          "internalType": "uint32",
          "name": "readyTime",
          "type": "uint32"
        },
        {
          "internalType": "uint16",
          "name": "winCount",
          "type": "uint16"
        },
        {
          "internalType": "uint16",
          "name": "lossCount",
          "type": "uint16"
        }
      ],
      "payable": false,
      "stateMutability": "view",
      "type": "function"
    },
    {
      "constant": false,
      "inputs": [
        {
          "internalType": "uint256",
          "name": "_zombieId",
          "type": "uint256"
        },
        {
          "internalType": "uint256",
          "name": "_targetId",
          "type": "uint256"
        }
      ],
      "name": "attack",
      "outputs": [],
      "payable": false,
      "stateMutability": "nonpayable",
      "type": "function"
    }
  ],
  "bytecode": "0x60806040526010600155600154600a0a600255620151806003557316baf0de678e52367adc69fd067e5edd1d33e3bf600760006101000a81548173ffffffffffffffffffffffffffffffffffffffff021916908373ffffffffffffffffffffffffffffffffffffffff16021790555073a8f260147355e3d06838c8b9d313f84700c7fb53600860006101000a81548173ffffffffffffffffffffffffffffffffffffffff021916908373ffffffffffffffffffffffffffffffffffffffff16021790555066038d7ea4c680006009556000600a556046600b55336000806101000a81548173ffffffffffffffffffffffffffffffffffffffff021916908373ffffffffffffffffffffffffffffffffffffffff1602179055506000809054906101000a900473ffffffffffffffffffffffffffffffffffffffff1673ffffffffffffffffffffffffffffffffffffffff16600073ffffffffffffffffffffffffffffffffffffffff167f8be0079c531659141344cd1fd0a4f28419497f9722a3daafe3b4186f6b6457e060405160405180910390a361213e806101a36000396000f3fe6080604052600436106101095760003560e01c80637bff0a0111610095578063ccf670f811610064578063ccf670f814610643578063df57a6ec1461067e578063e1fa76381461075a578063f26ac03f1461079f578063f2fde38b146107e457610109565b80637bff0a01146104655780638da5cb5b1461052d5780638f32d59b14610584578063c39cbef1146105b357610109565b80634412e104116100dc5780634412e10414610297578063528b7b8f1461033d5780635f4623f1146103b85780635faf288014610409578063715018a61461044e57610109565b80630ce90ec21461010e57806317a7f4cc1461013c5780632052465e146101815780633ccfd60b14610280575b600080fd5b61013a6004803603602081101561012457600080fd5b8101908080359060200190929190505050610835565b005b34801561014857600080fd5b5061017f6004803603604081101561015f57600080fd5b8101908080359060200190929190803590602001909291905050506108ca565b005b34801561018d57600080fd5b506101ba600480360360208110156101a457600080fd5b8101908080359060200190929190505050610ac2565b60405180806020018781526020018663ffffffff1663ffffffff1681526020018563ffffffff1663ffffffff1681526020018461ffff1661ffff1681526020018361ffff1661ffff168152602001828103825288818151815260200191508051906020019080838360005b83811015610240578082015181840152602081019050610225565b50505050905090810190601f16801561026d5780820380516001836020036101000a031916815260200191505b5097505050505050505060405180910390f35b34801561028c57600080fd5b50610295610bdf565b005b3480156102a357600080fd5b506102e6600480360360208110156102ba57600080fd5b81019080803573ffffffffffffffffffffffffffffffffffffffff169060200190929190505050610c46565b6040518080602001828103825283818151815260200191508051906020019060200280838360005b8381101561032957808201518184015260208101905061030e565b505050509050019250505060405180910390f35b34801561034957600080fd5b506103766004803603602081101561036057600080fd5b8101908080359060200190929190505050610d81565b604051808273ffffffffffffffffffffffffffffffffffffffff1673ffffffffffffffffffffffffffffffffffffffff16815260200191505060405180910390f35b3480156103c457600080fd5b50610407600480360360208110156103db57600080fd5b81019080803573ffffffffffffffffffffffffffffffffffffffff169060200190929190505050610db4565b005b34801561041557600080fd5b5061044c6004803603604081101561042c57600080fd5b810190808035906020019092919080359060200190929190505050610e09565b005b34801561045a57600080fd5b50610463610ee3565b005b34801561047157600080fd5b5061052b6004803603602081101561048857600080fd5b81019080803590602001906401000000008111156104a557600080fd5b8201836020820111156104b757600080fd5b803590602001918460018302840111640100000000831117156104d957600080fd5b91908080601f016020809104026020016040519081016040528093929190818152602001838380828437600081840152601f19601f820116905080830192505050505050509192919290505050610fb3565b005b34801561053957600080fd5b50610542611029565b604051808273ffffffffffffffffffffffffffffffffffffffff1673ffffffffffffffffffffffffffffffffffffffff16815260200191505060405180910390f35b34801561059057600080fd5b50610599611052565b604051808215151515815260200191505060405180910390f35b3480156105bf57600080fd5b50610641600480360360408110156105d657600080fd5b8101908080359060200190929190803590602001906401000000008111156105fd57600080fd5b82018360208201111561060f57600080fd5b8035906020019184600183028401116401000000008311171561063157600080fd5b90919293919293905050506110a9565b005b34801561064f57600080fd5b5061067c6004803603602081101561066657600080fd5b810190808035906020019092919050505061118f565b005b34801561068a57600080fd5b50610744600480360360208110156106a157600080fd5b81019080803590602001906401000000008111156106be57600080fd5b8201836020820111156106d057600080fd5b803590602001918460018302840111640100000000831117156106f257600080fd5b91908080601f016020809104026020016040519081016040528093929190818152602001838380828437600081840152601f19601f8201169050808301925050505050505091929192905050506111aa565b6040518082815260200191505060405180910390f35b34801561076657600080fd5b5061079d6004803603604081101561077d57600080fd5b810190808035906020019092919080359060200190929190505050611238565b005b3480156107ab57600080fd5b506107e2600480360360408110156107c257600080fd5b8101908080359060200190929190803590602001909291905050506114c4565b005b3480156107f057600080fd5b506108336004803603602081101561080757600080fd5b81019080803573ffffffffffffffffffffffffffffffffffffffff1690602001909291905050506117f0565b005b600954341461084357600080fd5b61088b60016004838154811061085557fe5b906000526020600020906003020160020160009054906101000a900463ffffffff1663ffffffff1661180d90919063ffffffff16565b6004828154811061089857fe5b906000526020600020906003020160020160006101000a81548163ffffffff021916908363ffffffff16021790555050565b816005600082815260200190815260200160002060009054906101000a900473ffffffffffffffffffffffffffffffffffffffff1673ffffffffffffffffffffffffffffffffffffffff163373ffffffffffffffffffffffffffffffffffffffff161461093657600080fd5b6000600760009054906101000a900473ffffffffffffffffffffffffffffffffffffffff1673ffffffffffffffffffffffffffffffffffffffff1663e98b7f4d846040518263ffffffff1660e01b8152600401808281526020019150506101406040518083038186803b1580156109ac57600080fd5b505afa1580156109c0573d6000803e3d6000fd5b505050506040513d6101408110156109d757600080fd5b810190808051906020019092919080519060200190929190805190602001909291908051906020019092919080519060200190929190805190602001909291908051906020019092919080519060200190929190805190602001909291908051906020019092919050505090919293949596979850909192939495969750909192939495965090919293949550909192939450909192935090919250909150905080915050610abc84826040518060400160405280600581526020017f6b69747479000000000000000000000000000000000000000000000000000000815250611835565b50505050565b60048181548110610acf57fe5b9060005260206000209060030201600091509050806000018054600181600116156101000203166002900480601f016020809104026020016040519081016040528092919081815260200182805460018160011615610100020316600290048015610b7b5780601f10610b5057610100808354040283529160200191610b7b565b820191906000526020600020905b815481529060010190602001808311610b5e57829003601f168201915b5050505050908060010154908060020160009054906101000a900463ffffffff16908060020160049054906101000a900463ffffffff16908060020160089054906101000a900461ffff169080600201600a9054906101000a900461ffff16905086565b610be7611052565b610bf057600080fd5b6000610bfa611029565b90508073ffffffffffffffffffffffffffffffffffffffff166108fc479081150290604051600060405180830381858888f19350505050158015610c42573d6000803e3d6000fd5b5050565b606080600660008473ffffffffffffffffffffffffffffffffffffffff1673ffffffffffffffffffffffffffffffffffffffff16815260200190815260200160002054604051908082528060200260200182016040528015610cb75781602001602082028038833980820191505090505b509050600080905060008090505b600480549050811015610d76578473ffffffffffffffffffffffffffffffffffffffff166005600083815260200190815260200160002060009054906101000a900473ffffffffffffffffffffffffffffffffffffffff1673ffffffffffffffffffffffffffffffffffffffff161415610d695780838381518110610d4657fe5b602002602001018181525050610d66600183611ae990919063ffffffff16565b91505b8080600101915050610cc5565b508192505050919050565b60056020528060005260406000206000915054906101000a900473ffffffffffffffffffffffffffffffffffffffff1681565b610dbc611052565b610dc557600080fd5b80600760006101000a81548173ffffffffffffffffffffffffffffffffffffffff021916908373ffffffffffffffffffffffffffffffffffffffff16021790555050565b6014828160048281548110610e1a57fe5b906000526020600020906003020160020160009054906101000a900463ffffffff1663ffffffff161015610e4d57600080fd5b836005600082815260200190815260200160002060009054906101000a900473ffffffffffffffffffffffffffffffffffffffff1673ffffffffffffffffffffffffffffffffffffffff163373ffffffffffffffffffffffffffffffffffffffff1614610eb957600080fd5b8360048681548110610ec757fe5b9060005260206000209060030201600101819055505050505050565b610eeb611052565b610ef457600080fd5b600073ffffffffffffffffffffffffffffffffffffffff166000809054906101000a900473ffffffffffffffffffffffffffffffffffffffff1673ffffffffffffffffffffffffffffffffffffffff167f8be0079c531659141344cd1fd0a4f28419497f9722a3daafe3b4186f6b6457e060405160405180910390a360008060006101000a81548173ffffffffffffffffffffffffffffffffffffffff021916908373ffffffffffffffffffffffffffffffffffffffff160217905550565b6000600660003373ffffffffffffffffffffffffffffffffffffffff1673ffffffffffffffffffffffffffffffffffffffff1681526020019081526020016000205414610fff57600080fd5b600061100a826111aa565b90506064818161101657fe5b06810390506110258282611b05565b5050565b60008060009054906101000a900473ffffffffffffffffffffffffffffffffffffffff16905090565b60008060009054906101000a900473ffffffffffffffffffffffffffffffffffffffff1673ffffffffffffffffffffffffffffffffffffffff163373ffffffffffffffffffffffffffffffffffffffff1614905090565b60028381600482815481106110ba57fe5b906000526020600020906003020160020160009054906101000a900463ffffffff1663ffffffff1610156110ed57600080fd5b846005600082815260200190815260200160002060009054906101000a900473ffffffffffffffffffffffffffffffffffffffff1673ffffffffffffffffffffffffffffffffffffffff163373ffffffffffffffffffffffffffffffffffffffff161461115957600080fd5b84846004888154811061116857fe5b90600052602060002090600302016000019190611186929190611fe4565b50505050505050565b611197611052565b6111a057600080fd5b8060098190555050565b600080826040516020018082805190602001908083835b602083106111e457805182526020820191506020810190506020830392506111c1565b6001836020036101000a0380198251168184511680821785525050505050509050019150506040516020818303038152906040528051906020012060001c9050600254818161122f57fe5b06915050919050565b816005600082815260200190815260200160002060009054906101000a900473ffffffffffffffffffffffffffffffffffffffff1673ffffffffffffffffffffffffffffffffffffffff163373ffffffffffffffffffffffffffffffffffffffff16146112a457600080fd5b6000600484815481106112b357fe5b906000526020600020906003020190506000600484815481106112d257fe5b9060005260206000209060030201905060006112ee6064611dde565b9050600b5481116114225761132360018460020160089054906101000a900461ffff1661ffff16611e7790919063ffffffff16565b8360020160086101000a81548161ffff021916908361ffff16021790555061136f60018460020160009054906101000a900463ffffffff1663ffffffff1661180d90919063ffffffff16565b8360020160006101000a81548163ffffffff021916908363ffffffff1602179055506113bb600183600201600a9054906101000a900461ffff1661ffff16611e7790919063ffffffff16565b82600201600a6101000a81548161ffff021916908361ffff16021790555061141d8683600101546040518060400160405280600681526020017f7a6f6d6269650000000000000000000000000000000000000000000000000000815250611835565b6114bc565b61144c600184600201600a9054906101000a900461ffff1661ffff16611e7790919063ffffffff16565b83600201600a6101000a81548161ffff021916908361ffff16021790555061149460018360020160089054906101000a900461ffff1661ffff16611e7790919063ffffffff16565b8260020160086101000a81548161ffff021916908361ffff1602179055506114bb83611e9b565b5b505050505050565b816005600082815260200190815260200160002060009054906101000a900473ffffffffffffffffffffffffffffffffffffffff1673ffffffffffffffffffffffffffffffffffffffff163373ffffffffffffffffffffffffffffffffffffffff161461153057600080fd5b6060600080600860009054906101000a900473ffffffffffffffffffffffffffffffffffffffff1673ffffffffffffffffffffffffffffffffffffffff166329372ad0866040518263ffffffff1660e01b81526004018082815260200191505060006040518083038186803b1580156115a857600080fd5b505afa1580156115bc573d6000803e3d6000fd5b505050506040513d6000823e3d601f19601f8201168201806040525060c08110156115e657600080fd5b810190808051604051939291908464010000000082111561160657600080fd5b8382019150602082018581111561161c57600080fd5b825186600182028301116401000000008211171561163957600080fd5b8083526020830192505050908051906020019080838360005b8381101561166d578082015181840152602081019050611652565b50505050905090810190601f16801561169a5780820380516001836020036101000a031916815260200191505b50604052602001805160405193929190846401000000008211156116bd57600080fd5b838201915060208201858111156116d357600080fd5b82518660018202830111640100000000821117156116f057600080fd5b8083526020830192505050908051906020019080838360005b83811015611724578082015181840152602081019050611709565b50505050905090810190601f1680156117515780820380516001836020036101000a031916815260200191505b5060405260200180519060200190929190805190602001909291908051906020019092919080519060200190929190505050909192939450909150905080935081945082955050505060006117a5846111aa565b90506117e787826040518060400160405280600781526020017f77617272696f7200000000000000000000000000000000000000000000000000815250611835565b50505050505050565b6117f8611052565b61180157600080fd5b61180a81611ec5565b50565b60008082840190508363ffffffff168163ffffffff16101561182b57fe5b8091505092915050565b826005600082815260200190815260200160002060009054906101000a900473ffffffffffffffffffffffffffffffffffffffff1673ffffffffffffffffffffffffffffffffffffffff163373ffffffffffffffffffffffffffffffffffffffff16146118a157600080fd5b6000600485815481106118b057fe5b906000526020600020906003020190506118c981611fbd565b6118d257600080fd5b60025484816118dd57fe5b0693506000600285836001015401816118f257fe5b04905060405160200180807f6b69747479000000000000000000000000000000000000000000000000000000815250600501905060405160208183030381529060405280519060200120846040516020018082805190602001908083835b602083106119735780518252602082019150602081019050602083039250611950565b6001836020036101000a0380198251168184511680821785525050505050509050019150506040516020818303038152906040528051906020012014156119c7576063606482816119c057fe5b0682030190505b60405160200180807f77617272696f7200000000000000000000000000000000000000000000000000815250600701905060405160208183030381529060405280519060200120846040516020018082805190602001908083835b60208310611a455780518252602082019150602081019050602083039250611a22565b6001836020036101000a038019825116818451168082178552505050505050905001915050604051602081830303815290604052805190602001201415611a9957605860648281611a9257fe5b0682030190505b611ad86040518060400160405280600681526020017f4e6f4e616d65000000000000000000000000000000000000000000000000000081525082611b05565b611ae182611e9b565b505050505050565b600080828401905083811015611afb57fe5b8091505092915050565b60046040518060c00160405280848152602001838152602001600163ffffffff168152602001600354420163ffffffff168152602001600061ffff168152602001600061ffff16815250908060018154018082558091505090600182039060005260206000209060030201600090919290919091506000820151816000019080519060200190611b96929190612064565b506020820151816001015560408201518160020160006101000a81548163ffffffff021916908363ffffffff16021790555060608201518160020160046101000a81548163ffffffff021916908363ffffffff16021790555060808201518160020160086101000a81548161ffff021916908361ffff16021790555060a082015181600201600a6101000a81548161ffff021916908361ffff16021790555050505060006001600480549050039050336005600083815260200190815260200160002060006101000a81548173ffffffffffffffffffffffffffffffffffffffff021916908373ffffffffffffffffffffffffffffffffffffffff160217905550611cea6001600660003373ffffffffffffffffffffffffffffffffffffffff1673ffffffffffffffffffffffffffffffffffffffff16815260200190815260200160002054611ae990919063ffffffff16565b600660003373ffffffffffffffffffffffffffffffffffffffff1673ffffffffffffffffffffffffffffffffffffffff168152602001908152602001600020819055507f88f026aacbbecc90c18411df4b1185fd8d9be2470f1962f192bf84a27d0704b78184846040518084815260200180602001838152602001828103825284818151815260200191508051906020019080838360005b83811015611d9d578082015181840152602081019050611d82565b50505050905090810190601f168015611dca5780820380516001836020036101000a031916815260200191505b5094505050505060405180910390a1505050565b6000611df66001600a54611ae990919063ffffffff16565b600a81905550814233600a54604051602001808481526020018373ffffffffffffffffffffffffffffffffffffffff1673ffffffffffffffffffffffffffffffffffffffff1660601b815260140182815260200193505050506040516020818303038152906040528051906020012060001c81611e6f57fe5b069050919050565b60008082840190508361ffff168161ffff161015611e9157fe5b8091505092915050565b60035442018160020160046101000a81548163ffffffff021916908363ffffffff16021790555050565b600073ffffffffffffffffffffffffffffffffffffffff168173ffffffffffffffffffffffffffffffffffffffff161415611eff57600080fd5b8073ffffffffffffffffffffffffffffffffffffffff166000809054906101000a900473ffffffffffffffffffffffffffffffffffffffff1673ffffffffffffffffffffffffffffffffffffffff167f8be0079c531659141344cd1fd0a4f28419497f9722a3daafe3b4186f6b6457e060405160405180910390a3806000806101000a81548173ffffffffffffffffffffffffffffffffffffffff021916908373ffffffffffffffffffffffffffffffffffffffff16021790555050565b6000428260020160049054906101000a900463ffffffff1663ffffffff1611159050919050565b828054600181600116156101000203166002900490600052602060002090601f016020900481019282601f1061202557803560ff1916838001178555612053565b82800160010185558215612053579182015b82811115612052578235825591602001919060010190612037565b5b50905061206091906120e4565b5090565b828054600181600116156101000203166002900490600052602060002090601f016020900481019282601f106120a557805160ff19168380011785556120d3565b828001600101855582156120d3579182015b828111156120d25782518255916020019190600101906120b7565b5b5090506120e091906120e4565b5090565b61210691905b808211156121025760008160009055506001016120ea565b5090565b9056fea265627a7a723158209784e86aaa067606ef414a74cfb3e4824bfa23de10333e5dbdfea872e2130abe64736f6c63430005110032",
  "source": "// SPDX-License-Identifier: MIT\npragma solidity >=0.5.0 <0.6.0;\n\nimport \"./ZombieHelper.sol\";\n\ncontract ZombieAttack is ZombieHelper {\n  using SafeMath for uint256;\n  using SafeMath32 for uint32;\n  using SafeMath16 for uint16;\n\n  uint randNonce = 0;\n  uint attackVictoryProbability = 70;\n\n  function randMod(uint _modulus) internal returns (uint) {\n    randNonce = randNonce.add(1);\n    return uint(keccak256(abi.encodePacked(block.timestamp, msg.sender, randNonce))) % _modulus;\n  }\n\n  function attack(uint _zombieId, uint _targetId) external onlyOwnerOf(_zombieId) {\n    Zombie storage myZombie = zombies[_zombieId];\n    Zombie storage enemyZombie = zombies[_targetId];\n    uint rand = randMod(100);\n    if (rand <= attackVictoryProbability) {\n      myZombie.winCount = myZombie.winCount.add(1);\n      myZombie.level = myZombie.level.add(1);\n      enemyZombie.lossCount = enemyZombie.lossCount.add(1);\n      feedAndMultiply(_zombieId, enemyZombie.dna, \"zombie\");\n    } else {\n      myZombie.lossCount = myZombie.lossCount.add(1);\n      enemyZombie.winCount = enemyZombie.winCount.add(1);\n      _triggerCooldown(myZombie);\n    }\n  }\n}",
  "sourcePath": "/home/bruno/src/cryptozombies/src/truffle/contracts/ZombieAttack.sol",
  "compiler": {
    "name": "solc",
    "version": "0.5.17+commit.d19bba13.Emscripten.clang"
  },
  "schemaVersion": "3.4.7",
  "updatedAt": "2022-06-21T16:29:10.366Z",
  "devdoc": {
    "methods": {
      "isOwner()": {
        "return": "true if `msg.sender` is the owner of the contract."
      },
      "owner()": {
        "return": "the address of the owner."
      },
      "renounceOwnership()": {
        "details": "Allows the current owner to relinquish control of the contract."
      },
      "transferOwnership(address)": {
        "details": "Allows the current owner to transfer control of the contract to a newOwner.",
        "params": {
          "newOwner": "The address to transfer ownership to."
        }
      }
    }
  },
  "userdoc": {
    "methods": {
      "renounceOwnership()": {
        "notice": "Renouncing to ownership will leave the contract without an owner. It will not be possible to call the functions with the `onlyOwner` modifier anymore."
      }
    }
  }
}