{
  "contractName": "ZombieHelper",
  "abi": [
    {
      "anonymous": false,
      "inputs": [
        {
          "indexed": false,
          "internalType": "uint256",
          "name": "zombieId",
          "type": "uint256"
        },
        {
          "indexed": false,
          "internalType": "string",
          "name": "name",
          "type": "string"
        },
        {
          "indexed": false,
          "internalType": "uint256",
          "name": "dna",
          "type": "uint256"
        }
      ],
      "name": "NewZombie",
      "type": "event"
    },
    {
      "anonymous": false,
      "inputs": [
        {
          "indexed": true,
          "internalType": "address",
          "name": "previousOwner",
          "type": "address"
        },
        {
          "indexed": true,
          "internalType": "address",
          "name": "newOwner",
          "type": "address"
        }
      ],
      "name": "OwnershipTransferred",
      "type": "event"
    },
    {
      "inputs": [
        {
          "internalType": "string",
          "name": "_name",
          "type": "string"
        }
      ],
      "name": "createRandomZombie",
      "outputs": [],
      "stateMutability": "nonpayable",
      "type": "function"
    },
    {
      "inputs": [
        {
          "internalType": "uint256",
          "name": "_zombieId",
          "type": "uint256"
        },
        {
          "internalType": "uint256",
          "name": "_kittyId",
          "type": "uint256"
        }
      ],
      "name": "feedOnKitty",
      "outputs": [],
      "stateMutability": "nonpayable",
      "type": "function"
    },
    {
      "inputs": [],
      "name": "owner",
      "outputs": [
        {
          "internalType": "address",
          "name": "",
          "type": "address"
        }
      ],
      "stateMutability": "view",
      "type": "function"
    },
    {
      "inputs": [],
      "name": "renounceOwnership",
      "outputs": [],
      "stateMutability": "nonpayable",
      "type": "function"
    },
    {
      "inputs": [
        {
          "internalType": "address",
          "name": "_address",
          "type": "address"
        }
      ],
      "name": "setKittyContractAddress",
      "outputs": [],
      "stateMutability": "nonpayable",
      "type": "function"
    },
    {
      "inputs": [
        {
          "internalType": "address",
          "name": "newOwner",
          "type": "address"
        }
      ],
      "name": "transferOwnership",
      "outputs": [],
      "stateMutability": "nonpayable",
      "type": "function"
    },
    {
      "inputs": [
        {
          "internalType": "uint256",
          "name": "",
          "type": "uint256"
        }
      ],
      "name": "zombieToOwner",
      "outputs": [
        {
          "internalType": "address",
          "name": "",
          "type": "address"
        }
      ],
      "stateMutability": "view",
      "type": "function"
    },
    {
      "inputs": [
        {
          "internalType": "uint256",
          "name": "",
          "type": "uint256"
        }
      ],
      "name": "zombies",
      "outputs": [
        {
          "internalType": "string",
          "name": "name",
          "type": "string"
        },
        {
          "internalType": "uint256",
          "name": "dna",
          "type": "uint256"
        },
        {
          "internalType": "uint32",
          "name": "level",
          "type": "uint32"
        },
        {
          "internalType": "uint32",
          "name": "readyTime",
          "type": "uint32"
        },
        {
          "internalType": "uint16",
          "name": "winCount",
          "type": "uint16"
        },
        {
          "internalType": "uint16",
          "name": "lossCount",
          "type": "uint16"
        }
      ],
      "stateMutability": "view",
      "type": "function"
    },
    {
      "inputs": [],
      "name": "withdraw",
      "outputs": [],
      "stateMutability": "nonpayable",
      "type": "function"
    },
    {
      "inputs": [
        {
          "internalType": "uint256",
          "name": "_fee",
          "type": "uint256"
        }
      ],
      "name": "setLevelUpFee",
      "outputs": [],
      "stateMutability": "nonpayable",
      "type": "function"
    },
    {
      "inputs": [
        {
          "internalType": "uint256",
          "name": "_zombieId",
          "type": "uint256"
        }
      ],
      "name": "levelUp",
      "outputs": [],
      "stateMutability": "payable",
      "type": "function"
    },
    {
      "inputs": [
        {
          "internalType": "uint256",
          "name": "_zombieId",
          "type": "uint256"
        },
        {
          "internalType": "string",
          "name": "_newName",
          "type": "string"
        }
      ],
      "name": "changeName",
      "outputs": [],
      "stateMutability": "nonpayable",
      "type": "function"
    },
    {
      "inputs": [
        {
          "internalType": "uint256",
          "name": "_zombieId",
          "type": "uint256"
        },
        {
          "internalType": "uint256",
          "name": "_newDna",
          "type": "uint256"
        }
      ],
      "name": "changeDna",
      "outputs": [],
      "stateMutability": "nonpayable",
      "type": "function"
    },
    {
      "inputs": [
        {
          "internalType": "address",
          "name": "_owner",
          "type": "address"
        }
      ],
      "name": "getZombiesByOwner",
      "outputs": [
        {
          "internalType": "uint256[]",
          "name": "",
          "type": "uint256[]"
        }
      ],
      "stateMutability": "view",
      "type": "function"
    }
  ],
  "bytecode": "0x60806040526010600155600154600a0a6002556201518060035566038d7ea4c6800060085534801561003057600080fd5b5060006100416100e460201b60201c565b9050806000806101000a81548173ffffffffffffffffffffffffffffffffffffffff021916908373ffffffffffffffffffffffffffffffffffffffff1602179055508073ffffffffffffffffffffffffffffffffffffffff16600073ffffffffffffffffffffffffffffffffffffffff167f8be0079c531659141344cd1fd0a4f28419497f9722a3daafe3b4186f6b6457e060405160405180910390a3506100ec565b600033905090565b611b46806100fb6000396000f3fe6080604052600436106100dd5760003560e01c80635faf28801161007f5780638da5cb5b116100595780638da5cb5b146104d7578063c39cbef114610518578063ccf670f8146105a8578063f2fde38b146105e3576100dd565b80635faf2880146103b3578063715018a6146103f85780637bff0a011461040f576100dd565b80633ccfd60b116100bb5780633ccfd60b146102405780634412e10414610257578063528b7b8f146102fd5780635f4623f114610362576100dd565b80630ce90ec2146100e257806317a7f4cc146101105780632052465e14610155575b600080fd5b61010e600480360360208110156100f857600080fd5b8101908080359060200190929190505050610634565b005b34801561011c57600080fd5b506101536004803603604081101561013357600080fd5b8101908080359060200190929190803590602001909291905050506106c9565b005b34801561016157600080fd5b5061018e6004803603602081101561017857600080fd5b8101908080359060200190929190505050610854565b60405180806020018781526020018663ffffffff1681526020018563ffffffff1681526020018461ffff1681526020018361ffff168152602001828103825288818151815260200191508051906020019080838360005b838110156102005780820151818401526020810190506101e5565b50505050905090810190601f16801561022d5780820380516001836020036101000a031916815260200191505b5097505050505050505060405180910390f35b34801561024c57600080fd5b50610255610974565b005b34801561026357600080fd5b506102a66004803603602081101561027a57600080fd5b81019080803573ffffffffffffffffffffffffffffffffffffffff169060200190929190505050610a79565b6040518080602001828103825283818151815260200191508051906020019060200280838360005b838110156102e95780820151818401526020810190506102ce565b505050509050019250505060405180910390f35b34801561030957600080fd5b506103366004803603602081101561032057600080fd5b8101908080359060200190929190505050610bc5565b604051808273ffffffffffffffffffffffffffffffffffffffff16815260200191505060405180910390f35b34801561036e57600080fd5b506103b16004803603602081101561038557600080fd5b81019080803573ffffffffffffffffffffffffffffffffffffffff169060200190929190505050610bf8565b005b3480156103bf57600080fd5b506103f6600480360360408110156103d657600080fd5b810190808035906020019092919080359060200190929190505050610ceb565b005b34801561040457600080fd5b5061040d610dc5565b005b34801561041b57600080fd5b506104d56004803603602081101561043257600080fd5b810190808035906020019064010000000081111561044f57600080fd5b82018360208201111561046157600080fd5b8035906020019184600183028401116401000000008311171561048357600080fd5b91908080601f016020809104026020016040519081016040528093929190818152602001838380828437600081840152601f19601f820116905080830192505050505050509192919290505050610f32565b005b3480156104e357600080fd5b506104ec610fa8565b604051808273ffffffffffffffffffffffffffffffffffffffff16815260200191505060405180910390f35b34801561052457600080fd5b506105a66004803603604081101561053b57600080fd5b81019080803590602001909291908035906020019064010000000081111561056257600080fd5b82018360208201111561057457600080fd5b8035906020019184600183028401116401000000008311171561059657600080fd5b9091929391929390505050610fd1565b005b3480156105b457600080fd5b506105e1600480360360208110156105cb57600080fd5b81019080803590602001909291905050506110b7565b005b3480156105ef57600080fd5b506106326004803603602081101561060657600080fd5b81019080803573ffffffffffffffffffffffffffffffffffffffff169060200190929190505050611170565b005b600854341461064257600080fd5b61068a60016004838154811061065457fe5b906000526020600020906003020160020160009054906101000a900463ffffffff1663ffffffff1661136290919063ffffffff16565b6004828154811061069757fe5b906000526020600020906003020160020160006101000a81548163ffffffff021916908363ffffffff16021790555050565b6000600760009054906101000a900473ffffffffffffffffffffffffffffffffffffffff1673ffffffffffffffffffffffffffffffffffffffff1663e98b7f4d836040518263ffffffff1660e01b8152600401808281526020019150506101406040518083038186803b15801561073f57600080fd5b505afa158015610753573d6000803e3d6000fd5b505050506040513d61014081101561076a57600080fd5b81019080805190602001909291908051906020019092919080519060200190929190805190602001909291908051906020019092919080519060200190929190805190602001909291908051906020019092919080519060200190929190805190602001909291905050509091929394959697985090919293949596975090919293949596509091929394955090919293945090919293509091925090915090508091505061084f83826040518060400160405280600581526020017f6b6974747900000000000000000000000000000000000000000000000000000081525061138a565b505050565b6004818154811061086457600080fd5b9060005260206000209060030201600091509050806000018054600181600116156101000203166002900480601f0160208091040260200160405190810160405280929190818152602001828054600181600116156101000203166002900480156109105780601f106108e557610100808354040283529160200191610910565b820191906000526020600020905b8154815290600101906020018083116108f357829003601f168201915b5050505050908060010154908060020160009054906101000a900463ffffffff16908060020160049054906101000a900463ffffffff16908060020160089054906101000a900461ffff169080600201600a9054906101000a900461ffff16905086565b61097c61156c565b73ffffffffffffffffffffffffffffffffffffffff1661099a610fa8565b73ffffffffffffffffffffffffffffffffffffffff1614610a23576040517f08c379a00000000000000000000000000000000000000000000000000000000081526004018080602001828103825260208152602001807f4f776e61626c653a2063616c6c6572206973206e6f7420746865206f776e657281525060200191505060405180910390fd5b6000610a2d610fa8565b90508073ffffffffffffffffffffffffffffffffffffffff166108fc479081150290604051600060405180830381858888f19350505050158015610a75573d6000803e3d6000fd5b5050565b60606000600660008473ffffffffffffffffffffffffffffffffffffffff1673ffffffffffffffffffffffffffffffffffffffff1681526020019081526020016000205467ffffffffffffffff81118015610ad357600080fd5b50604051908082528060200260200182016040528015610b025781602001602082028036833780820191505090505b5090506000805b600480549050811015610bba578473ffffffffffffffffffffffffffffffffffffffff166005600083815260200190815260200160002060009054906101000a900473ffffffffffffffffffffffffffffffffffffffff1673ffffffffffffffffffffffffffffffffffffffff161415610bad5780838381518110610b8a57fe5b602002602001018181525050610baa60018361157490919063ffffffff16565b91505b8080600101915050610b09565b508192505050919050565b60056020528060005260406000206000915054906101000a900473ffffffffffffffffffffffffffffffffffffffff1681565b610c0061156c565b73ffffffffffffffffffffffffffffffffffffffff16610c1e610fa8565b73ffffffffffffffffffffffffffffffffffffffff1614610ca7576040517f08c379a00000000000000000000000000000000000000000000000000000000081526004018080602001828103825260208152602001807f4f776e61626c653a2063616c6c6572206973206e6f7420746865206f776e657281525060200191505060405180910390fd5b80600760006101000a81548173ffffffffffffffffffffffffffffffffffffffff021916908373ffffffffffffffffffffffffffffffffffffffff16021790555050565b6014828160048281548110610cfc57fe5b906000526020600020906003020160020160009054906101000a900463ffffffff1663ffffffff161015610d2f57600080fd5b836005600082815260200190815260200160002060009054906101000a900473ffffffffffffffffffffffffffffffffffffffff1673ffffffffffffffffffffffffffffffffffffffff163373ffffffffffffffffffffffffffffffffffffffff1614610d9b57600080fd5b8360048681548110610da957fe5b9060005260206000209060030201600101819055505050505050565b610dcd61156c565b73ffffffffffffffffffffffffffffffffffffffff16610deb610fa8565b73ffffffffffffffffffffffffffffffffffffffff1614610e74576040517f08c379a00000000000000000000000000000000000000000000000000000000081526004018080602001828103825260208152602001807f4f776e61626c653a2063616c6c6572206973206e6f7420746865206f776e657281525060200191505060405180910390fd5b600073ffffffffffffffffffffffffffffffffffffffff1660008054906101000a900473ffffffffffffffffffffffffffffffffffffffff1673ffffffffffffffffffffffffffffffffffffffff167f8be0079c531659141344cd1fd0a4f28419497f9722a3daafe3b4186f6b6457e060405160405180910390a360008060006101000a81548173ffffffffffffffffffffffffffffffffffffffff021916908373ffffffffffffffffffffffffffffffffffffffff160217905550565b6000600660003373ffffffffffffffffffffffffffffffffffffffff1673ffffffffffffffffffffffffffffffffffffffff1681526020019081526020016000205414610f7e57600080fd5b6000610f89826115fc565b905060648181610f9557fe5b0681039050610fa4828261168a565b5050565b60008060009054906101000a900473ffffffffffffffffffffffffffffffffffffffff16905090565b6002838160048281548110610fe257fe5b906000526020600020906003020160020160009054906101000a900463ffffffff1663ffffffff16101561101557600080fd5b846005600082815260200190815260200160002060009054906101000a900473ffffffffffffffffffffffffffffffffffffffff1673ffffffffffffffffffffffffffffffffffffffff163373ffffffffffffffffffffffffffffffffffffffff161461108157600080fd5b84846004888154811061109057fe5b906000526020600020906003020160000191906110ae9291906119b1565b50505050505050565b6110bf61156c565b73ffffffffffffffffffffffffffffffffffffffff166110dd610fa8565b73ffffffffffffffffffffffffffffffffffffffff1614611166576040517f08c379a00000000000000000000000000000000000000000000000000000000081526004018080602001828103825260208152602001807f4f776e61626c653a2063616c6c6572206973206e6f7420746865206f776e657281525060200191505060405180910390fd5b8060088190555050565b61117861156c565b73ffffffffffffffffffffffffffffffffffffffff16611196610fa8565b73ffffffffffffffffffffffffffffffffffffffff161461121f576040517f08c379a00000000000000000000000000000000000000000000000000000000081526004018080602001828103825260208152602001807f4f776e61626c653a2063616c6c6572206973206e6f7420746865206f776e657281525060200191505060405180910390fd5b600073ffffffffffffffffffffffffffffffffffffffff168173ffffffffffffffffffffffffffffffffffffffff1614156112a5576040517f08c379a0000000000000000000000000000000000000000000000000000000008152600401808060200182810382526026815260200180611aeb6026913960400191505060405180910390fd5b8073ffffffffffffffffffffffffffffffffffffffff1660008054906101000a900473ffffffffffffffffffffffffffffffffffffffff1673ffffffffffffffffffffffffffffffffffffffff167f8be0079c531659141344cd1fd0a4f28419497f9722a3daafe3b4186f6b6457e060405160405180910390a3806000806101000a81548173ffffffffffffffffffffffffffffffffffffffff021916908373ffffffffffffffffffffffffffffffffffffffff16021790555050565b60008082840190508363ffffffff168163ffffffff16101561138057fe5b8091505092915050565b826005600082815260200190815260200160002060009054906101000a900473ffffffffffffffffffffffffffffffffffffffff1673ffffffffffffffffffffffffffffffffffffffff163373ffffffffffffffffffffffffffffffffffffffff16146113f657600080fd5b60006004858154811061140557fe5b9060005260206000209060030201905061141e81611960565b61142757600080fd5b600254848161143257fe5b06935060006002858360010154018161144757fe5b04905060405160200180807f6b69747479000000000000000000000000000000000000000000000000000000815250600501905060405160208183030381529060405280519060200120846040516020018082805190602001908083835b602083106114c857805182526020820191506020810190506020830392506114a5565b6001836020036101000a03801982511681845116808217855250505050505090500191505060405160208183030381529060405280519060200120141561151c5760636064828161151557fe5b0682030190505b61155b6040518060400160405280600681526020017f4e6f4e616d6500000000000000000000000000000000000000000000000000008152508261168a565b61156482611987565b505050505050565b600033905090565b6000808284019050838110156115f2576040517f08c379a000000000000000000000000000000000000000000000000000000000815260040180806020018281038252601b8152602001807f536166654d6174683a206164646974696f6e206f766572666c6f77000000000081525060200191505060405180910390fd5b8091505092915050565b600080826040516020018082805190602001908083835b602083106116365780518252602082019150602081019050602083039250611613565b6001836020036101000a0380198251168184511680821785525050505050509050019150506040516020818303038152906040528051906020012060001c9050600254818161168157fe5b06915050919050565b60046040518060c00160405280848152602001838152602001600163ffffffff168152602001600354420163ffffffff168152602001600061ffff168152602001600061ffff1681525090806001815401808255809150506001900390600052602060002090600302016000909190919091506000820151816000019080519060200190611719929190611a3f565b506020820151816001015560408201518160020160006101000a81548163ffffffff021916908363ffffffff16021790555060608201518160020160046101000a81548163ffffffff021916908363ffffffff16021790555060808201518160020160086101000a81548161ffff021916908361ffff16021790555060a082015181600201600a6101000a81548161ffff021916908361ffff160217905550505060006001600480549050039050336005600083815260200190815260200160002060006101000a81548173ffffffffffffffffffffffffffffffffffffffff021916908373ffffffffffffffffffffffffffffffffffffffff16021790555061186c6001600660003373ffffffffffffffffffffffffffffffffffffffff1673ffffffffffffffffffffffffffffffffffffffff1681526020019081526020016000205461157490919063ffffffff16565b600660003373ffffffffffffffffffffffffffffffffffffffff1673ffffffffffffffffffffffffffffffffffffffff168152602001908152602001600020819055507f88f026aacbbecc90c18411df4b1185fd8d9be2470f1962f192bf84a27d0704b78184846040518084815260200180602001838152602001828103825284818151815260200191508051906020019080838360005b8381101561191f578082015181840152602081019050611904565b50505050905090810190601f16801561194c5780820380516001836020036101000a031916815260200191505b5094505050505060405180910390a1505050565b6000428260020160049054906101000a900463ffffffff1663ffffffff1611159050919050565b60035442018160020160046101000a81548163ffffffff021916908363ffffffff16021790555050565b828054600181600116156101000203166002900490600052602060002090601f0160209004810192826119e75760008555611a2e565b82601f10611a0057803560ff1916838001178555611a2e565b82800160010185558215611a2e579182015b82811115611a2d578235825591602001919060010190611a12565b5b509050611a3b9190611acd565b5090565b828054600181600116156101000203166002900490600052602060002090601f016020900481019282611a755760008555611abc565b82601f10611a8e57805160ff1916838001178555611abc565b82800160010185558215611abc579182015b82811115611abb578251825591602001919060010190611aa0565b5b509050611ac99190611acd565b5090565b5b80821115611ae6576000816000905550600101611ace565b509056fe4f776e61626c653a206e6577206f776e657220697320746865207a65726f2061646472657373a26469706673582212208743c6da2e69e5970882847b76d5b011a79573a556be7b2f58bb17f1fd81565164736f6c63430007060033",
  "immutableReferences": {},
  "source": "// SPDX-License-Identifier: MIT\npragma solidity >=0.5.0 <=0.8.15;\n\nimport \"./ZombieFeeding.sol\";\n\ncontract ZombieHelper is ZombieFeeding {\n  using SafeMath for uint256;\n  using SafeMath32 for uint32;\n  using SafeMath16 for uint16;\n\n  uint levelUpFee = 0.001 ether;\n\n  modifier aboveLevel(uint _level, uint _zombieId) {\n    require(zombies[_zombieId].level >= _level);\n    _;\n  }\n\n  function withdraw() external onlyOwner {\n    address payable _owner = address(uint160(owner()));\n    _owner.transfer(address(this).balance);\n  }\n\n  function setLevelUpFee(uint _fee) external onlyOwner {\n    levelUpFee = _fee;\n  }\n\n  function levelUp(uint _zombieId) external payable {\n    require(msg.value == levelUpFee);\n    zombies[_zombieId].level = zombies[_zombieId].level.add(1);\n  }\n\n  function changeName(uint _zombieId, string calldata _newName) external aboveLevel(2, _zombieId) onlyOwnerOf(_zombieId) {\n    zombies[_zombieId].name = _newName;\n  }\n\n  function changeDna(uint _zombieId, uint _newDna) external aboveLevel(20, _zombieId) onlyOwnerOf(_zombieId) {\n    zombies[_zombieId].dna = _newDna;\n  }\n\n  function getZombiesByOwner(address _owner) external view returns(uint[] memory) {\n    uint[] memory result = new uint[](ownerZombieCount[_owner]);\n    uint counter = 0;\n    for (uint i = 0; i < zombies.length; i++) {\n      if (zombieToOwner[i] == _owner) {\n        result[counter] = i;\n        counter = counter.add(1);\n      }\n    }\n    return result;\n  }\n}\n",
  "sourcePath": "/home/bruno/src/cryptozombies/src/truffle/contracts/ZombieHelper.sol",
  "compiler": {
    "name": "solc",
    "version": "0.7.6+commit.7338295f.Emscripten.clang"
  },
  "schemaVersion": "3.4.7",
  "updatedAt": "2022-06-18T14:37:38.010Z",
  "devdoc": {
    "kind": "dev",
    "methods": {
      "owner()": {
        "details": "Returns the address of the current owner."
      },
      "renounceOwnership()": {
        "details": "Leaves the contract without owner. It will not be possible to call `onlyOwner` functions anymore. Can only be called by the current owner. NOTE: Renouncing ownership will leave the contract without an owner, thereby removing any functionality that is only available to the owner."
      },
      "transferOwnership(address)": {
        "details": "Transfers ownership of the contract to a new account (`newOwner`). Can only be called by the current owner."
      }
    },
    "version": 1
  },
  "userdoc": {
    "kind": "user",
    "methods": {},
    "version": 1
  }
}