{
  "contractName": "ZombieFeeding",
  "abi": [
    {
      "anonymous": false,
      "inputs": [
        {
          "indexed": false,
          "internalType": "uint256",
          "name": "zombieId",
          "type": "uint256"
        },
        {
          "indexed": false,
          "internalType": "string",
          "name": "name",
          "type": "string"
        },
        {
          "indexed": false,
          "internalType": "uint256",
          "name": "dna",
          "type": "uint256"
        }
      ],
      "name": "NewZombie",
      "type": "event"
    },
    {
      "inputs": [
        {
          "internalType": "string",
          "name": "_name",
          "type": "string"
        }
      ],
      "name": "createRandomZombie",
      "outputs": [],
      "stateMutability": "nonpayable",
      "type": "function"
    },
    {
      "inputs": [
        {
          "internalType": "uint256",
          "name": "",
          "type": "uint256"
        }
      ],
      "name": "zombieToOwner",
      "outputs": [
        {
          "internalType": "address",
          "name": "",
          "type": "address"
        }
      ],
      "stateMutability": "view",
      "type": "function",
      "constant": true
    },
    {
      "inputs": [
        {
          "internalType": "uint256",
          "name": "",
          "type": "uint256"
        }
      ],
      "name": "zombies",
      "outputs": [
        {
          "internalType": "string",
          "name": "name",
          "type": "string"
        },
        {
          "internalType": "uint256",
          "name": "dna",
          "type": "uint256"
        }
      ],
      "stateMutability": "view",
      "type": "function",
      "constant": true
    },
    {
      "inputs": [
        {
          "internalType": "uint256",
          "name": "_zombieId",
          "type": "uint256"
        },
        {
          "internalType": "uint256",
          "name": "_targetDna",
          "type": "uint256"
        },
        {
          "internalType": "string",
          "name": "_species",
          "type": "string"
        }
      ],
      "name": "feedAndMultiply",
      "outputs": [],
      "stateMutability": "nonpayable",
      "type": "function"
    },
    {
      "inputs": [
        {
          "internalType": "uint256",
          "name": "_zombieId",
          "type": "uint256"
        },
        {
          "internalType": "uint256",
          "name": "_kittyId",
          "type": "uint256"
        }
      ],
      "name": "feedOnKitty",
      "outputs": [],
      "stateMutability": "nonpayable",
      "type": "function"
    }
  ],
  "bytecode": "0x60806040526010600055600054600a0a6001557306012c8cf97bead5deae237070f9587f8e7a266d600560006101000a81548173ffffffffffffffffffffffffffffffffffffffff021916908373ffffffffffffffffffffffffffffffffffffffff160217905550600560009054906101000a900473ffffffffffffffffffffffffffffffffffffffff16600660006101000a81548173ffffffffffffffffffffffffffffffffffffffff021916908373ffffffffffffffffffffffffffffffffffffffff1602179055503480156100d657600080fd5b50610b20806100e66000396000f3fe608060405234801561001057600080fd5b50600436106100575760003560e01c806317a7f4cc1461005c5780632052465e14610094578063528b7b8f146101425780636b0bfc801461019a5780637bff0a0114610269575b600080fd5b6100926004803603604081101561007257600080fd5b810190808035906020019092919080359060200190929190505050610324565b005b6100c0600480360360208110156100aa57600080fd5b81019080803590602001909291905050506104af565b6040518080602001838152602001828103825284818151815260200191508051906020019080838360005b838110156101065780820151818401526020810190506100eb565b50505050905090810190601f1680156101335780820380516001836020036101000a031916815260200191505b50935050505060405180910390f35b61016e6004803603602081101561015857600080fd5b810190808035906020019092919050505061057b565b604051808273ffffffffffffffffffffffffffffffffffffffff16815260200191505060405180910390f35b610267600480360360608110156101b057600080fd5b810190808035906020019092919080359060200190929190803590602001906401000000008111156101e157600080fd5b8201836020820111156101f357600080fd5b8035906020019184600183028401116401000000008311171561021557600080fd5b91908080601f016020809104026020016040519081016040528093929190818152602001838380828437600081840152601f19601f8201169050808301925050505050505091929192905050506105ae565b005b6103226004803603602081101561027f57600080fd5b810190808035906020019064010000000081111561029c57600080fd5b8201836020820111156102ae57600080fd5b803590602001918460018302840111640100000000831117156102d057600080fd5b91908080601f016020809104026020016040519081016040528093929190818152602001838380828437600081840152601f19601f820116905080830192505050505050509192919290505050610773565b005b6000600660009054906101000a900473ffffffffffffffffffffffffffffffffffffffff1673ffffffffffffffffffffffffffffffffffffffff1663e98b7f4d836040518263ffffffff1660e01b8152600401808281526020019150506101406040518083038186803b15801561039a57600080fd5b505afa1580156103ae573d6000803e3d6000fd5b505050506040513d6101408110156103c557600080fd5b8101908080519060200190929190805190602001909291908051906020019092919080519060200190929190805190602001909291908051906020019092919080519060200190929190805190602001909291908051906020019092919080519060200190929190505050909192939495969798509091929394959697509091929394959650909192939495509091929394509091929350909192509091509050809150506104aa83826040518060400160405280600581526020017f6b697474790000000000000000000000000000000000000000000000000000008152506105ae565b505050565b600281815481106104bf57600080fd5b9060005260206000209060020201600091509050806000018054600181600116156101000203166002900480601f01602080910402602001604051908101604052809291908181526020018280546001816001161561010002031660029004801561056b5780601f106105405761010080835404028352916020019161056b565b820191906000526020600020905b81548152906001019060200180831161054e57829003601f168201915b5050505050908060010154905082565b60036020528060005260406000206000915054906101000a900473ffffffffffffffffffffffffffffffffffffffff1681565b6003600084815260200190815260200160002060009054906101000a900473ffffffffffffffffffffffffffffffffffffffff1673ffffffffffffffffffffffffffffffffffffffff163373ffffffffffffffffffffffffffffffffffffffff161461061957600080fd5b60006002848154811061062857fe5b90600052602060002090600202019050600154838161064357fe5b06925060006002848360010154018161065857fe5b04905060405160200180807f6b69747479000000000000000000000000000000000000000000000000000000815250600501905060405160208183030381529060405280519060200120836040516020018082805190602001908083835b602083106106d957805182526020820191506020810190506020830392506106b6565b6001836020036101000a03801982511681845116808217855250505050505090500191505060405160208183030381529060405280519060200120141561072d5760636064828161072657fe5b0682030190505b61076c6040518060400160405280600681526020017f4e6f4e616d650000000000000000000000000000000000000000000000000000815250826107e9565b5050505050565b6000600460003373ffffffffffffffffffffffffffffffffffffffff1673ffffffffffffffffffffffffffffffffffffffff16815260200190815260200160002054146107bf57600080fd5b60006107ca826109b1565b9050606481816107d657fe5b06810390506107e582826107e9565b5050565b600260405180604001604052808481526020018381525090806001815401808255809150506001900390600052602060002090600202016000909190919091506000820151816000019080519060200190610845929190610a3f565b5060208201518160010155505060006001600280549050039050336003600083815260200190815260200160002060006101000a81548173ffffffffffffffffffffffffffffffffffffffff021916908373ffffffffffffffffffffffffffffffffffffffff160217905550600460003373ffffffffffffffffffffffffffffffffffffffff1673ffffffffffffffffffffffffffffffffffffffff168152602001908152602001600020600081548092919060010191905055507f88f026aacbbecc90c18411df4b1185fd8d9be2470f1962f192bf84a27d0704b78184846040518084815260200180602001838152602001828103825284818151815260200191508051906020019080838360005b83811015610970578082015181840152602081019050610955565b50505050905090810190601f16801561099d5780820380516001836020036101000a031916815260200191505b5094505050505060405180910390a1505050565b600080826040516020018082805190602001908083835b602083106109eb57805182526020820191506020810190506020830392506109c8565b6001836020036101000a0380198251168184511680821785525050505050509050019150506040516020818303038152906040528051906020012060001c90506001548181610a3657fe5b06915050919050565b828054600181600116156101000203166002900490600052602060002090601f016020900481019282610a755760008555610abc565b82601f10610a8e57805160ff1916838001178555610abc565b82800160010185558215610abc579182015b82811115610abb578251825591602001919060010190610aa0565b5b509050610ac99190610acd565b5090565b5b80821115610ae6576000816000905550600101610ace565b509056fea26469706673582212206af10de90cb87886feb48360a5e74cb7bc6b8e0b95332edd5e7498b4d2fc62f764736f6c63430007060033",
  "immutableReferences": {},
  "source": "// SPDX-License-Identifier: MIT\npragma solidity >=0.5.0 <=0.8.15;\n\nimport \"./ZombieFactory.sol\";\n\nabstract contract KittyInterface {\n  function getKitty(uint256 _id) external view virtual returns (\n    bool isGestating,\n    bool isReady,\n    uint256 cooldownIndex,\n    uint256 nextActionAt,\n    uint256 siringWithId,\n    uint256 birthTime,\n    uint256 matronId,\n    uint256 sireId,\n    uint256 generation,\n    uint256 genes\n  );\n}\n\ncontract ZombieFeeding is ZombieFactory {\n\n  address ckAddress = 0x06012c8cf97BEaD5deAe237070F9587f8E7A266d;\n  KittyInterface kittyContract = KittyInterface(ckAddress);\n\n  function feedAndMultiply(uint _zombieId, uint _targetDna, string memory _species) public {\n    require(msg.sender == zombieToOwner[_zombieId]);\n    Zombie storage myZombie = zombies[_zombieId];\n    _targetDna = _targetDna % dnaModulus;\n    uint newDna = (myZombie.dna + _targetDna) / 2;\n    if (keccak256(abi.encodePacked(_species)) == keccak256(abi.encodePacked(\"kitty\"))) {\n      newDna = newDna - newDna % 100 + 99;\n    }\n    _createZombie(\"NoName\", newDna);\n  }\n\n  function feedOnKitty(uint _zombieId, uint _kittyId) public {\n    uint kittyDna;\n    (,,,,,,,,,kittyDna) = kittyContract.getKitty(_kittyId);\n    feedAndMultiply(_zombieId, kittyDna, \"kitty\");\n  }\n\n}",
  "sourcePath": "/home/bruno/src/cryptozombies/src/truffle/contracts/ZombieFeeding.sol",
  "compiler": {
    "name": "solc",
    "version": "0.7.6+commit.7338295f.Emscripten.clang"
  },
  "schemaVersion": "3.4.7",
  "updatedAt": "2022-06-17T18:50:01.168Z",
  "networkType": "ethereum",
  "devdoc": {
    "kind": "dev",
    "methods": {},
    "version": 1
  },
  "userdoc": {
    "kind": "user",
    "methods": {},
    "version": 1
  }
}